{
  "contractName": "TokenA",
  "abi": [
    {
      "inputs": [
        {
          "internalType": "uint256",
          "name": "initialSupply",
          "type": "uint256"
        },
        {
          "internalType": "uint256",
          "name": "_tokenPrice",
          "type": "uint256"
        }
      ],
      "stateMutability": "nonpayable",
      "type": "constructor"
    },
    {
      "anonymous": false,
      "inputs": [
        {
          "indexed": true,
          "internalType": "address",
          "name": "owner",
          "type": "address"
        },
        {
          "indexed": true,
          "internalType": "address",
          "name": "spender",
          "type": "address"
        },
        {
          "indexed": false,
          "internalType": "uint256",
          "name": "value",
          "type": "uint256"
        }
      ],
      "name": "Approval",
      "type": "event"
    },
    {
      "anonymous": false,
      "inputs": [
        {
          "indexed": true,
          "internalType": "address",
          "name": "from",
          "type": "address"
        },
        {
          "indexed": true,
          "internalType": "address",
          "name": "to",
          "type": "address"
        },
        {
          "indexed": false,
          "internalType": "uint256",
          "name": "value",
          "type": "uint256"
        }
      ],
      "name": "Transfer",
      "type": "event"
    },
    {
      "inputs": [
        {
          "internalType": "address",
          "name": "owner",
          "type": "address"
        },
        {
          "internalType": "address",
          "name": "spender",
          "type": "address"
        }
      ],
      "name": "allowance",
      "outputs": [
        {
          "internalType": "uint256",
          "name": "",
          "type": "uint256"
        }
      ],
      "stateMutability": "view",
      "type": "function",
      "constant": true
    },
    {
      "inputs": [
        {
          "internalType": "address",
          "name": "spender",
          "type": "address"
        },
        {
          "internalType": "uint256",
          "name": "amount",
          "type": "uint256"
        }
      ],
      "name": "approve",
      "outputs": [
        {
          "internalType": "bool",
          "name": "",
          "type": "bool"
        }
      ],
      "stateMutability": "nonpayable",
      "type": "function"
    },
    {
      "inputs": [
        {
          "internalType": "address",
          "name": "account",
          "type": "address"
        }
      ],
      "name": "balanceOf",
      "outputs": [
        {
          "internalType": "uint256",
          "name": "",
          "type": "uint256"
        }
      ],
      "stateMutability": "view",
      "type": "function",
      "constant": true
    },
    {
      "inputs": [],
      "name": "decimals",
      "outputs": [
        {
          "internalType": "uint8",
          "name": "",
          "type": "uint8"
        }
      ],
      "stateMutability": "view",
      "type": "function",
      "constant": true
    },
    {
      "inputs": [
        {
          "internalType": "address",
          "name": "spender",
          "type": "address"
        },
        {
          "internalType": "uint256",
          "name": "subtractedValue",
          "type": "uint256"
        }
      ],
      "name": "decreaseAllowance",
      "outputs": [
        {
          "internalType": "bool",
          "name": "",
          "type": "bool"
        }
      ],
      "stateMutability": "nonpayable",
      "type": "function"
    },
    {
      "inputs": [
        {
          "internalType": "address",
          "name": "spender",
          "type": "address"
        },
        {
          "internalType": "uint256",
          "name": "addedValue",
          "type": "uint256"
        }
      ],
      "name": "increaseAllowance",
      "outputs": [
        {
          "internalType": "bool",
          "name": "",
          "type": "bool"
        }
      ],
      "stateMutability": "nonpayable",
      "type": "function"
    },
    {
      "inputs": [],
      "name": "name",
      "outputs": [
        {
          "internalType": "string",
          "name": "",
          "type": "string"
        }
      ],
      "stateMutability": "view",
      "type": "function",
      "constant": true
    },
    {
      "inputs": [],
      "name": "symbol",
      "outputs": [
        {
          "internalType": "string",
          "name": "",
          "type": "string"
        }
      ],
      "stateMutability": "view",
      "type": "function",
      "constant": true
    },
    {
      "inputs": [],
      "name": "tokenPrice",
      "outputs": [
        {
          "internalType": "uint256",
          "name": "",
          "type": "uint256"
        }
      ],
      "stateMutability": "view",
      "type": "function",
      "constant": true
    },
    {
      "inputs": [],
      "name": "tokensSold",
      "outputs": [
        {
          "internalType": "uint256",
          "name": "",
          "type": "uint256"
        }
      ],
      "stateMutability": "view",
      "type": "function",
      "constant": true
    },
    {
      "inputs": [],
      "name": "totalSupply",
      "outputs": [
        {
          "internalType": "uint256",
          "name": "",
          "type": "uint256"
        }
      ],
      "stateMutability": "view",
      "type": "function",
      "constant": true
    },
    {
      "inputs": [
        {
          "internalType": "address",
          "name": "to",
          "type": "address"
        },
        {
          "internalType": "uint256",
          "name": "amount",
          "type": "uint256"
        }
      ],
      "name": "transfer",
      "outputs": [
        {
          "internalType": "bool",
          "name": "",
          "type": "bool"
        }
      ],
      "stateMutability": "nonpayable",
      "type": "function"
    },
    {
      "inputs": [
        {
          "internalType": "address",
          "name": "from",
          "type": "address"
        },
        {
          "internalType": "address",
          "name": "to",
          "type": "address"
        },
        {
          "internalType": "uint256",
          "name": "amount",
          "type": "uint256"
        }
      ],
      "name": "transferFrom",
      "outputs": [
        {
          "internalType": "bool",
          "name": "",
          "type": "bool"
        }
      ],
      "stateMutability": "nonpayable",
      "type": "function"
    },
    {
      "inputs": [
        {
          "internalType": "uint256",
          "name": "numberOfTokens",
          "type": "uint256"
        }
      ],
      "name": "buyTokens",
      "outputs": [],
      "stateMutability": "payable",
      "type": "function",
      "payable": true
    }
  ],
  "bytecode": "0x60806040523480156200001157600080fd5b5060405162001ec638038062001ec6833981810160405281019062000037919062000375565b6040518060400160405280600681526020017f546f6b656e4100000000000000000000000000000000000000000000000000008152506040518060400160405280600381526020017f544b4100000000000000000000000000000000000000000000000000000000008152508160039080519060200190620000bb929190620002ae565b508060049080519060200190620000d4929190620002ae565b505050806005819055506200011a30620000f36200012260201b60201c565b600a62000101919062000511565b846200010e91906200064e565b6200012b60201b60201c565b505062000781565b60006012905090565b600073ffffffffffffffffffffffffffffffffffffffff168273ffffffffffffffffffffffffffffffffffffffff1614156200019e576040517f08c379a0000000000000000000000000000000000000000000000000000000008152600401620001959062000409565b60405180910390fd5b620001b260008383620002a460201b60201c565b8060026000828254620001c6919062000459565b92505081905550806000808473ffffffffffffffffffffffffffffffffffffffff1673ffffffffffffffffffffffffffffffffffffffff16815260200190815260200160002060008282546200021d919062000459565b925050819055508173ffffffffffffffffffffffffffffffffffffffff16600073ffffffffffffffffffffffffffffffffffffffff167fddf252ad1be2c89b69c2b068fc378daa952ba7f163c4a11628f55a4df523b3ef836040516200028491906200042b565b60405180910390a3620002a060008383620002a960201b60201c565b5050565b505050565b505050565b828054620002bc90620006c6565b90600052602060002090601f016020900481019282620002e057600085556200032c565b82601f10620002fb57805160ff19168380011785556200032c565b828001600101855582156200032c579182015b828111156200032b5782518255916020019190600101906200030e565b5b5090506200033b91906200033f565b5090565b5b808211156200035a57600081600090555060010162000340565b5090565b6000815190506200036f8162000767565b92915050565b600080604083850312156200038957600080fd5b600062000399858286016200035e565b9250506020620003ac858286016200035e565b9150509250929050565b6000620003c5601f8362000448565b91507f45524332303a206d696e7420746f20746865207a65726f2061646472657373006000830152602082019050919050565b6200040381620006af565b82525050565b600060208201905081810360008301526200042481620003b6565b9050919050565b6000602082019050620004426000830184620003f8565b92915050565b600082825260208201905092915050565b60006200046682620006af565b91506200047383620006af565b9250827fffffffffffffffffffffffffffffffffffffffffffffffffffffffffffffffff03821115620004ab57620004aa620006fc565b5b828201905092915050565b6000808291508390505b60018511156200050857808604811115620004e057620004df620006fc565b5b6001851615620004f05780820291505b808102905062000500856200075a565b9450620004c0565b94509492505050565b60006200051e82620006af565b91506200052b83620006b9565b92506200055a7fffffffffffffffffffffffffffffffffffffffffffffffffffffffffffffffff848462000562565b905092915050565b60008262000574576001905062000647565b8162000584576000905062000647565b81600181146200059d5760028114620005a857620005de565b600191505062000647565b60ff841115620005bd57620005bc620006fc565b5b8360020a915084821115620005d757620005d6620006fc565b5b5062000647565b5060208310610133831016604e8410600b8410161715620006185782820a905083811115620006125762000611620006fc565b5b62000647565b620006278484846001620004b6565b92509050818404811115620006415762000640620006fc565b5b81810290505b9392505050565b60006200065b82620006af565b91506200066883620006af565b9250817fffffffffffffffffffffffffffffffffffffffffffffffffffffffffffffffff0483118215151615620006a457620006a3620006fc565b5b828202905092915050565b6000819050919050565b600060ff82169050919050565b60006002820490506001821680620006df57607f821691505b60208210811415620006f657620006f56200072b565b5b50919050565b7f4e487b7100000000000000000000000000000000000000000000000000000000600052601160045260246000fd5b7f4e487b7100000000000000000000000000000000000000000000000000000000600052602260045260246000fd5b60008160011c9050919050565b6200077281620006af565b81146200077e57600080fd5b50565b61173580620007916000396000f3fe6080604052600436106100dd5760003560e01c8063518ab2a81161007f57806395d89b411161005957806395d89b41146102c9578063a457c2d7146102f4578063a9059cbb14610331578063dd62ed3e1461036e576100dd565b8063518ab2a81461023657806370a08231146102615780637ff9b5961461029e576100dd565b806323b872dd116100bb57806323b872dd14610175578063313ce567146101b25780633610724e146101dd57806339509351146101f9576100dd565b806306fdde03146100e2578063095ea7b31461010d57806318160ddd1461014a575b600080fd5b3480156100ee57600080fd5b506100f76103ab565b604051610104919061130d565b60405180910390f35b34801561011957600080fd5b50610134600480360381019061012f9190610e9e565b61043d565b60405161014191906112f2565b60405180910390f35b34801561015657600080fd5b5061015f610460565b60405161016c919061142f565b60405180910390f35b34801561018157600080fd5b5061019c60048036038101906101979190610e4f565b61046a565b6040516101a991906112f2565b60405180910390f35b3480156101be57600080fd5b506101c7610499565b6040516101d4919061144a565b60405180910390f35b6101f760048036038101906101f29190610f03565b6104a2565b005b34801561020557600080fd5b50610220600480360381019061021b9190610e9e565b610601565b60405161022d91906112f2565b60405180910390f35b34801561024257600080fd5b5061024b610638565b604051610258919061142f565b60405180910390f35b34801561026d57600080fd5b5061028860048036038101906102839190610dea565b61063e565b604051610295919061142f565b60405180910390f35b3480156102aa57600080fd5b506102b3610686565b6040516102c0919061142f565b60405180910390f35b3480156102d557600080fd5b506102de61068c565b6040516102eb919061130d565b60405180910390f35b34801561030057600080fd5b5061031b60048036038101906103169190610e9e565b61071e565b60405161032891906112f2565b60405180910390f35b34801561033d57600080fd5b5061035860048036038101906103539190610e9e565b610795565b60405161036591906112f2565b60405180910390f35b34801561037a57600080fd5b5061039560048036038101906103909190610e13565b6107b8565b6040516103a2919061142f565b60405180910390f35b6060600380546103ba906115ea565b80601f01602080910402602001604051908101604052809291908181526020018280546103e6906115ea565b80156104335780601f1061040857610100808354040283529160200191610433565b820191906000526020600020905b81548152906001019060200180831161041657829003601f168201915b5050505050905090565b60008061044861083f565b9050610455818585610847565b600191505092915050565b6000600254905090565b60008061047561083f565b9050610482858285610a12565b61048d858585610a9e565b60019150509392505050565b60006012905090565b6104ae81600554610d1f565b3410156104ba57600080fd5b803073ffffffffffffffffffffffffffffffffffffffff166370a08231306040518263ffffffff1660e01b81526004016104f491906112ae565b60206040518083038186803b15801561050c57600080fd5b505afa158015610520573d6000803e3d6000fd5b505050506040513d601f19601f820116820180604052508101906105449190610f2c565b101561054f57600080fd5b3073ffffffffffffffffffffffffffffffffffffffff1663a9059cbb33836040518363ffffffff1660e01b815260040161058a9291906112c9565b602060405180830381600087803b1580156105a457600080fd5b505af11580156105b8573d6000803e3d6000fd5b505050506040513d601f19601f820116820180604052508101906105dc9190610eda565b6105e557600080fd5b80600660008282546105f79190611481565b9250508190555050565b60008061060c61083f565b905061062d81858561061e85896107b8565b6106289190611481565b610847565b600191505092915050565b60065481565b60008060008373ffffffffffffffffffffffffffffffffffffffff1673ffffffffffffffffffffffffffffffffffffffff168152602001908152602001600020549050919050565b60055481565b60606004805461069b906115ea565b80601f01602080910402602001604051908101604052809291908181526020018280546106c7906115ea565b80156107145780601f106106e957610100808354040283529160200191610714565b820191906000526020600020905b8154815290600101906020018083116106f757829003601f168201915b5050505050905090565b60008061072961083f565b9050600061073782866107b8565b90508381101561077c576040517f08c379a00000000000000000000000000000000000000000000000000000000081526004016107739061140f565b60405180910390fd5b6107898286868403610847565b60019250505092915050565b6000806107a061083f565b90506107ad818585610a9e565b600191505092915050565b6000600160008473ffffffffffffffffffffffffffffffffffffffff1673ffffffffffffffffffffffffffffffffffffffff16815260200190815260200160002060008373ffffffffffffffffffffffffffffffffffffffff1673ffffffffffffffffffffffffffffffffffffffff16815260200190815260200160002054905092915050565b600033905090565b600073ffffffffffffffffffffffffffffffffffffffff168373ffffffffffffffffffffffffffffffffffffffff1614156108b7576040517f08c379a00000000000000000000000000000000000000000000000000000000081526004016108ae906113ef565b60405180910390fd5b600073ffffffffffffffffffffffffffffffffffffffff168273ffffffffffffffffffffffffffffffffffffffff161415610927576040517f08c379a000000000000000000000000000000000000000000000000000000000815260040161091e9061134f565b60405180910390fd5b80600160008573ffffffffffffffffffffffffffffffffffffffff1673ffffffffffffffffffffffffffffffffffffffff16815260200190815260200160002060008473ffffffffffffffffffffffffffffffffffffffff1673ffffffffffffffffffffffffffffffffffffffff168152602001908152602001600020819055508173ffffffffffffffffffffffffffffffffffffffff168373ffffffffffffffffffffffffffffffffffffffff167f8c5be1e5ebec7d5bd14f71427d1e84f3dd0314c0f7b2291e5b200ac8c7c3b92583604051610a05919061142f565b60405180910390a3505050565b6000610a1e84846107b8565b90507fffffffffffffffffffffffffffffffffffffffffffffffffffffffffffffffff8114610a985781811015610a8a576040517f08c379a0000000000000000000000000000000000000000000000000000000008152600401610a819061138f565b60405180910390fd5b610a978484848403610847565b5b50505050565b600073ffffffffffffffffffffffffffffffffffffffff168373ffffffffffffffffffffffffffffffffffffffff161415610b0e576040517f08c379a0000000000000000000000000000000000000000000000000000000008152600401610b05906113cf565b60405180910390fd5b600073ffffffffffffffffffffffffffffffffffffffff168273ffffffffffffffffffffffffffffffffffffffff161415610b7e576040517f08c379a0000000000000000000000000000000000000000000000000000000008152600401610b759061132f565b60405180910390fd5b610b89838383610d8c565b60008060008573ffffffffffffffffffffffffffffffffffffffff1673ffffffffffffffffffffffffffffffffffffffff16815260200190815260200160002054905081811015610c0f576040517f08c379a0000000000000000000000000000000000000000000000000000000008152600401610c06906113af565b60405180910390fd5b8181036000808673ffffffffffffffffffffffffffffffffffffffff1673ffffffffffffffffffffffffffffffffffffffff16815260200190815260200160002081905550816000808573ffffffffffffffffffffffffffffffffffffffff1673ffffffffffffffffffffffffffffffffffffffff1681526020019081526020016000206000828254610ca29190611481565b925050819055508273ffffffffffffffffffffffffffffffffffffffff168473ffffffffffffffffffffffffffffffffffffffff167fddf252ad1be2c89b69c2b068fc378daa952ba7f163c4a11628f55a4df523b3ef84604051610d06919061142f565b60405180910390a3610d19848484610d91565b50505050565b600080821480610d47575082828385610d389190611508565b925082610d4591906114d7565b145b610d86576040517f08c379a0000000000000000000000000000000000000000000000000000000008152600401610d7d9061136f565b60405180910390fd5b92915050565b505050565b505050565b600081359050610da5816116ba565b92915050565b600081519050610dba816116d1565b92915050565b600081359050610dcf816116e8565b92915050565b600081519050610de4816116e8565b92915050565b600060208284031215610dfc57600080fd5b6000610e0a84828501610d96565b91505092915050565b60008060408385031215610e2657600080fd5b6000610e3485828601610d96565b9250506020610e4585828601610d96565b9150509250929050565b600080600060608486031215610e6457600080fd5b6000610e7286828701610d96565b9350506020610e8386828701610d96565b9250506040610e9486828701610dc0565b9150509250925092565b60008060408385031215610eb157600080fd5b6000610ebf85828601610d96565b9250506020610ed085828601610dc0565b9150509250929050565b600060208284031215610eec57600080fd5b6000610efa84828501610dab565b91505092915050565b600060208284031215610f1557600080fd5b6000610f2384828501610dc0565b91505092915050565b600060208284031215610f3e57600080fd5b6000610f4c84828501610dd5565b91505092915050565b610f5e81611562565b82525050565b610f6d81611574565b82525050565b6000610f7e82611465565b610f888185611470565b9350610f988185602086016115b7565b610fa1816116a9565b840191505092915050565b6000610fb9602383611470565b91507f45524332303a207472616e7366657220746f20746865207a65726f206164647260008301527f65737300000000000000000000000000000000000000000000000000000000006020830152604082019050919050565b600061101f602283611470565b91507f45524332303a20617070726f766520746f20746865207a65726f20616464726560008301527f73730000000000000000000000000000000000000000000000000000000000006020830152604082019050919050565b6000611085601483611470565b91507f64732d6d6174682d6d756c2d6f766572666c6f770000000000000000000000006000830152602082019050919050565b60006110c5601d83611470565b91507f45524332303a20696e73756666696369656e7420616c6c6f77616e63650000006000830152602082019050919050565b6000611105602683611470565b91507f45524332303a207472616e7366657220616d6f756e742065786365656473206260008301527f616c616e636500000000000000000000000000000000000000000000000000006020830152604082019050919050565b600061116b602583611470565b91507f45524332303a207472616e736665722066726f6d20746865207a65726f20616460008301527f64726573730000000000000000000000000000000000000000000000000000006020830152604082019050919050565b60006111d1602483611470565b91507f45524332303a20617070726f76652066726f6d20746865207a65726f2061646460008301527f72657373000000000000000000000000000000000000000000000000000000006020830152604082019050919050565b6000611237602583611470565b91507f45524332303a2064656372656173656420616c6c6f77616e63652062656c6f7760008301527f207a65726f0000000000000000000000000000000000000000000000000000006020830152604082019050919050565b611299816115a0565b82525050565b6112a8816115aa565b82525050565b60006020820190506112c36000830184610f55565b92915050565b60006040820190506112de6000830185610f55565b6112eb6020830184611290565b9392505050565b60006020820190506113076000830184610f64565b92915050565b600060208201905081810360008301526113278184610f73565b905092915050565b6000602082019050818103600083015261134881610fac565b9050919050565b6000602082019050818103600083015261136881611012565b9050919050565b6000602082019050818103600083015261138881611078565b9050919050565b600060208201905081810360008301526113a8816110b8565b9050919050565b600060208201905081810360008301526113c8816110f8565b9050919050565b600060208201905081810360008301526113e88161115e565b9050919050565b60006020820190508181036000830152611408816111c4565b9050919050565b600060208201905081810360008301526114288161122a565b9050919050565b60006020820190506114446000830184611290565b92915050565b600060208201905061145f600083018461129f565b92915050565b600081519050919050565b600082825260208201905092915050565b600061148c826115a0565b9150611497836115a0565b9250827fffffffffffffffffffffffffffffffffffffffffffffffffffffffffffffffff038211156114cc576114cb61161c565b5b828201905092915050565b60006114e2826115a0565b91506114ed836115a0565b9250826114fd576114fc61164b565b5b828204905092915050565b6000611513826115a0565b915061151e836115a0565b9250817fffffffffffffffffffffffffffffffffffffffffffffffffffffffffffffffff04831182151516156115575761155661161c565b5b828202905092915050565b600061156d82611580565b9050919050565b60008115159050919050565b600073ffffffffffffffffffffffffffffffffffffffff82169050919050565b6000819050919050565b600060ff82169050919050565b60005b838110156115d55780820151818401526020810190506115ba565b838111156115e4576000848401525b50505050565b6000600282049050600182168061160257607f821691505b602082108114156116165761161561167a565b5b50919050565b7f4e487b7100000000000000000000000000000000000000000000000000000000600052601160045260246000fd5b7f4e487b7100000000000000000000000000000000000000000000000000000000600052601260045260246000fd5b7f4e487b7100000000000000000000000000000000000000000000000000000000600052602260045260246000fd5b6000601f19601f8301169050919050565b6116c381611562565b81146116ce57600080fd5b50565b6116da81611574565b81146116e557600080fd5b50565b6116f1816115a0565b81146116fc57600080fd5b5056fea2646970667358221220675c35f803c2d68a518327b34bf28d32b58a3c57c13e3bb9afc982bff6e52df864736f6c63430008000033",
  "immutableReferences": {},
  "source": "// SPDX-License-Identifier: MIT\r\npragma solidity ^0.8.0;\r\n\r\nimport \"@openzeppelin/contracts/token/ERC20/ERC20.sol\";\r\n\r\ncontract TokenA is ERC20 {\r\n    uint256 public tokenPrice;\r\n    uint256 public tokensSold;\r\n\r\n    constructor(uint256 initialSupply, uint256 _tokenPrice)\r\n        ERC20(\"TokenA\", \"TKA\")\r\n    {\r\n        tokenPrice = _tokenPrice;\r\n        // ERC20 tokens have 18 decimals\r\n        // number of tokens minted = initia lSupply * 10\r\n        _mint(address(this), initialSupply * 10**decimals());\r\n    }\r\n\r\n    // multiply function\r\n    function mul(uint256 x, uint256 y) internal pure returns (uint256 z) {\r\n        require(y == 0 || (z = x * y) / y == x, \"ds-math-mul-overflow\");\r\n    }\r\n\r\n    function buyTokens(uint256 numberOfTokens) external payable {\r\n       \r\n        // Require that value is equal to tokens\r\n        require(msg.value >= mul(numberOfTokens, tokenPrice));\r\n\r\n        // Require that the contract has enough tokens\r\n        require(this.balanceOf(address(this)) >= numberOfTokens);\r\n\r\n        // Require transfer is success\r\n        require(this.transfer(msg.sender, numberOfTokens));\r\n\r\n        // keep track of tokensSold\r\n        tokensSold += numberOfTokens;\r\n    }\r\n}",
  "sourcePath": "C:\\Users\\yucheng\\Desktop\\jkos_project\\contracts\\TokenA.sol",
  "compiler": {
    "name": "solc",
    "version": "0.8.0+commit.c7dfd78e.Emscripten.clang"
  },
  "schemaVersion": "3.4.7",
  "updatedAt": "2022-05-16T01:55:07.142Z",
  "networkType": "ethereum",
  "devdoc": {
    "kind": "dev",
    "methods": {
      "allowance(address,address)": {
        "details": "See {IERC20-allowance}."
      },
      "approve(address,uint256)": {
        "details": "See {IERC20-approve}. NOTE: If `amount` is the maximum `uint256`, the allowance is not updated on `transferFrom`. This is semantically equivalent to an infinite approval. Requirements: - `spender` cannot be the zero address."
      },
      "balanceOf(address)": {
        "details": "See {IERC20-balanceOf}."
      },
      "decimals()": {
        "details": "Returns the number of decimals used to get its user representation. For example, if `decimals` equals `2`, a balance of `505` tokens should be displayed to a user as `5.05` (`505 / 10 ** 2`). Tokens usually opt for a value of 18, imitating the relationship between Ether and Wei. This is the value {ERC20} uses, unless this function is overridden; NOTE: This information is only used for _display_ purposes: it in no way affects any of the arithmetic of the contract, including {IERC20-balanceOf} and {IERC20-transfer}."
      },
      "decreaseAllowance(address,uint256)": {
        "details": "Atomically decreases the allowance granted to `spender` by the caller. This is an alternative to {approve} that can be used as a mitigation for problems described in {IERC20-approve}. Emits an {Approval} event indicating the updated allowance. Requirements: - `spender` cannot be the zero address. - `spender` must have allowance for the caller of at least `subtractedValue`."
      },
      "increaseAllowance(address,uint256)": {
        "details": "Atomically increases the allowance granted to `spender` by the caller. This is an alternative to {approve} that can be used as a mitigation for problems described in {IERC20-approve}. Emits an {Approval} event indicating the updated allowance. Requirements: - `spender` cannot be the zero address."
      },
      "name()": {
        "details": "Returns the name of the token."
      },
      "symbol()": {
        "details": "Returns the symbol of the token, usually a shorter version of the name."
      },
      "totalSupply()": {
        "details": "See {IERC20-totalSupply}."
      },
      "transfer(address,uint256)": {
        "details": "See {IERC20-transfer}. Requirements: - `to` cannot be the zero address. - the caller must have a balance of at least `amount`."
      },
      "transferFrom(address,address,uint256)": {
        "details": "See {IERC20-transferFrom}. Emits an {Approval} event indicating the updated allowance. This is not required by the EIP. See the note at the beginning of {ERC20}. NOTE: Does not update the allowance if the current allowance is the maximum `uint256`. Requirements: - `from` and `to` cannot be the zero address. - `from` must have a balance of at least `amount`. - the caller must have allowance for ``from``'s tokens of at least `amount`."
      }
    },
    "version": 1
  },
  "userdoc": {
    "kind": "user",
    "methods": {},
    "version": 1
  }
}