{
  "contractName": "TokenSwap",
  "abi": [
    {
      "inputs": [
        {
          "internalType": "address",
          "name": "_tokenA",
          "type": "address"
        },
        {
          "internalType": "address",
          "name": "_tokenB",
          "type": "address"
        }
      ],
      "stateMutability": "nonpayable",
      "type": "constructor"
    },
    {
      "inputs": [],
      "name": "tokenA",
      "outputs": [
        {
          "internalType": "contract TokenA",
          "name": "",
          "type": "address"
        }
      ],
      "stateMutability": "view",
      "type": "function",
      "constant": true
    },
    {
      "inputs": [],
      "name": "tokenB",
      "outputs": [
        {
          "internalType": "contract TokenB",
          "name": "",
          "type": "address"
        }
      ],
      "stateMutability": "view",
      "type": "function",
      "constant": true
    },
    {
      "inputs": [
        {
          "internalType": "uint256",
          "name": "_ratio",
          "type": "uint256"
        }
      ],
      "name": "setRatio",
      "outputs": [],
      "stateMutability": "nonpayable",
      "type": "function"
    },
    {
      "inputs": [],
      "name": "getRatio",
      "outputs": [
        {
          "internalType": "uint256",
          "name": "",
          "type": "uint256"
        }
      ],
      "stateMutability": "view",
      "type": "function",
      "constant": true
    },
    {
      "inputs": [
        {
          "internalType": "uint256",
          "name": "_Fees",
          "type": "uint256"
        }
      ],
      "name": "setFees",
      "outputs": [],
      "stateMutability": "nonpayable",
      "type": "function"
    },
    {
      "inputs": [],
      "name": "getFees",
      "outputs": [
        {
          "internalType": "uint256",
          "name": "",
          "type": "uint256"
        }
      ],
      "stateMutability": "view",
      "type": "function",
      "constant": true
    },
    {
      "inputs": [
        {
          "internalType": "uint256",
          "name": "amountA",
          "type": "uint256"
        }
      ],
      "name": "swapTKAtoTKB",
      "outputs": [
        {
          "internalType": "uint256",
          "name": "",
          "type": "uint256"
        }
      ],
      "stateMutability": "nonpayable",
      "type": "function"
    },
    {
      "inputs": [
        {
          "internalType": "uint256",
          "name": "amountB",
          "type": "uint256"
        }
      ],
      "name": "swapTKBtoTKA",
      "outputs": [
        {
          "internalType": "uint256",
          "name": "",
          "type": "uint256"
        }
      ],
      "stateMutability": "nonpayable",
      "type": "function"
    },
    {
      "inputs": [
        {
          "internalType": "uint256",
          "name": "amount",
          "type": "uint256"
        }
      ],
      "name": "buyTokensA",
      "outputs": [],
      "stateMutability": "payable",
      "type": "function",
      "payable": true
    },
    {
      "inputs": [
        {
          "internalType": "uint256",
          "name": "amount",
          "type": "uint256"
        }
      ],
      "name": "buyTokensB",
      "outputs": [],
      "stateMutability": "payable",
      "type": "function",
      "payable": true
    }
  ],
  "bytecode": "0x60806040523480156200001157600080fd5b5060405162001e4338038062001e438339818101604052810190620000379190620003f9565b33600260006101000a81548173ffffffffffffffffffffffffffffffffffffffff021916908373ffffffffffffffffffffffffffffffffffffffff16021790555081600360006101000a81548173ffffffffffffffffffffffffffffffffffffffff021916908373ffffffffffffffffffffffffffffffffffffffff16021790555080600460006101000a81548173ffffffffffffffffffffffffffffffffffffffff021916908373ffffffffffffffffffffffffffffffffffffffff160217905550600360009054906101000a900473ffffffffffffffffffffffffffffffffffffffff1673ffffffffffffffffffffffffffffffffffffffff1663095ea7b330600360009054906101000a900473ffffffffffffffffffffffffffffffffffffffff1673ffffffffffffffffffffffffffffffffffffffff166318160ddd6040518163ffffffff1660e01b815260040160206040518083038186803b158015620001a257600080fd5b505afa158015620001b7573d6000803e3d6000fd5b505050506040513d601f19601f82011682018060405250810190620001dd919062000466565b6040518363ffffffff1660e01b8152600401620001fc929190620004b4565b602060405180830381600087803b1580156200021757600080fd5b505af11580156200022c573d6000803e3d6000fd5b505050506040513d601f19601f820116820180604052508101906200025291906200043a565b50600460009054906101000a900473ffffffffffffffffffffffffffffffffffffffff1673ffffffffffffffffffffffffffffffffffffffff1663095ea7b330600360009054906101000a900473ffffffffffffffffffffffffffffffffffffffff1673ffffffffffffffffffffffffffffffffffffffff166318160ddd6040518163ffffffff1660e01b815260040160206040518083038186803b158015620002fb57600080fd5b505afa15801562000310573d6000803e3d6000fd5b505050506040513d601f19601f8201168201806040525081019062000336919062000466565b6040518363ffffffff1660e01b815260040162000355929190620004b4565b602060405180830381600087803b1580156200037057600080fd5b505af115801562000385573d6000803e3d6000fd5b505050506040513d601f19601f82011682018060405250810190620003ab91906200043a565b50505062000579565b600081519050620003c5816200052b565b92915050565b600081519050620003dc8162000545565b92915050565b600081519050620003f3816200055f565b92915050565b600080604083850312156200040d57600080fd5b60006200041d85828601620003b4565b92505060206200043085828601620003b4565b9150509250929050565b6000602082840312156200044d57600080fd5b60006200045d84828501620003cb565b91505092915050565b6000602082840312156200047957600080fd5b60006200048984828501620003e2565b91505092915050565b6200049d81620004e1565b82525050565b620004ae8162000521565b82525050565b6000604082019050620004cb600083018562000492565b620004da6020830184620004a3565b9392505050565b6000620004ee8262000501565b9050919050565b60008115159050919050565b600073ffffffffffffffffffffffffffffffffffffffff82169050919050565b6000819050919050565b6200053681620004e1565b81146200054257600080fd5b50565b6200055081620004f5565b81146200055c57600080fd5b50565b6200056a8162000521565b81146200057657600080fd5b50565b6118ba80620005896000396000f3fe6080604052600436106100915760003560e01c8063b2237ba311610059578063b2237ba31461016e578063bcb74d2614610197578063db8d55f1146101d4578063ec1ebd7a146101ff578063f21d8e0b1461022a57610091565b80630fc63d1014610096578063292c9cf5146100c15780633d18678e146100dd5780635761274a146101065780635f64b55b14610143575b600080fd5b3480156100a257600080fd5b506100ab610246565b6040516100b89190611547565b60405180910390f35b6100db60048036038101906100d69190611180565b61026c565b005b3480156100e957600080fd5b5061010460048036038101906100ff9190611180565b61038d565b005b34801561011257600080fd5b5061012d60048036038101906101289190611180565b610427565b60405161013a919061167d565b60405180910390f35b34801561014f57600080fd5b506101586108e1565b6040516101659190611562565b60405180910390f35b34801561017a57600080fd5b5061019560048036038101906101909190611180565b610907565b005b3480156101a357600080fd5b506101be60048036038101906101b99190611180565b6109a1565b6040516101cb919061167d565b60405180910390f35b3480156101e057600080fd5b506101e9610e56565b6040516101f6919061167d565b60405180910390f35b34801561020b57600080fd5b50610214610ef0565b604051610221919061167d565b60405180910390f35b610244600480360381019061023f9190611180565b610f8a565b005b600360009054906101000a900473ffffffffffffffffffffffffffffffffffffffff1681565b600260009054906101000a900473ffffffffffffffffffffffffffffffffffffffff1673ffffffffffffffffffffffffffffffffffffffff163373ffffffffffffffffffffffffffffffffffffffff16146102fc576040517f08c379a00000000000000000000000000000000000000000000000000000000081526004016102f3906115bd565b60405180910390fd5b600360009054906101000a900473ffffffffffffffffffffffffffffffffffffffff1673ffffffffffffffffffffffffffffffffffffffff16633610724e34836040518363ffffffff1660e01b8152600401610358919061167d565b6000604051808303818588803b15801561037157600080fd5b505af1158015610385573d6000803e3d6000fd5b505050505050565b600260009054906101000a900473ffffffffffffffffffffffffffffffffffffffff1673ffffffffffffffffffffffffffffffffffffffff163373ffffffffffffffffffffffffffffffffffffffff161461041d576040517f08c379a0000000000000000000000000000000000000000000000000000000008152600401610414906115bd565b60405180910390fd5b8060018190555050565b6000805482101561046d576040517f08c379a00000000000000000000000000000000000000000000000000000000081526004016104649061165d565b60405180910390fd5b81600460009054906101000a900473ffffffffffffffffffffffffffffffffffffffff1673ffffffffffffffffffffffffffffffffffffffff166370a08231336040518263ffffffff1660e01b81526004016104c991906114cc565b60206040518083038186803b1580156104e157600080fd5b505afa1580156104f5573d6000803e3d6000fd5b505050506040513d601f19601f8201168201806040525081019061051991906111a9565b101561055a576040517f08c379a00000000000000000000000000000000000000000000000000000000081526004016105519061159d565b60405180910390fd5b600080548361056991906116a9565b9050600060646001548361057d91906116da565b61058791906116a9565b826105929190611734565b9050600081116105d7576040517f08c379a00000000000000000000000000000000000000000000000000000000081526004016105ce9061163d565b60405180910390fd5b80600360009054906101000a900473ffffffffffffffffffffffffffffffffffffffff1673ffffffffffffffffffffffffffffffffffffffff166370a08231306040518263ffffffff1660e01b815260040161063391906114cc565b60206040518083038186803b15801561064b57600080fd5b505afa15801561065f573d6000803e3d6000fd5b505050506040513d601f19601f8201168201806040525081019061068391906111a9565b116106c3576040517f08c379a00000000000000000000000000000000000000000000000000000000081526004016106ba9061157d565b60405180910390fd5b600460009054906101000a900473ffffffffffffffffffffffffffffffffffffffff1673ffffffffffffffffffffffffffffffffffffffff166323b872dd3330876040518463ffffffff1660e01b8152600401610722939291906114e7565b602060405180830381600087803b15801561073c57600080fd5b505af1158015610750573d6000803e3d6000fd5b505050506040513d601f19601f820116820180604052508101906107749190611157565b50600360009054906101000a900473ffffffffffffffffffffffffffffffffffffffff1673ffffffffffffffffffffffffffffffffffffffff1663095ea7b333836040518363ffffffff1660e01b81526004016107d292919061151e565b602060405180830381600087803b1580156107ec57600080fd5b505af1158015610800573d6000803e3d6000fd5b505050506040513d601f19601f820116820180604052508101906108249190611157565b50600360009054906101000a900473ffffffffffffffffffffffffffffffffffffffff1673ffffffffffffffffffffffffffffffffffffffff166323b872dd3033846040518463ffffffff1660e01b8152600401610884939291906114e7565b602060405180830381600087803b15801561089e57600080fd5b505af11580156108b2573d6000803e3d6000fd5b505050506040513d601f19601f820116820180604052508101906108d69190611157565b508092505050919050565b600460009054906101000a900473ffffffffffffffffffffffffffffffffffffffff1681565b600260009054906101000a900473ffffffffffffffffffffffffffffffffffffffff1673ffffffffffffffffffffffffffffffffffffffff163373ffffffffffffffffffffffffffffffffffffffff1614610997576040517f08c379a000000000000000000000000000000000000000000000000000000000815260040161098e906115bd565b60405180910390fd5b8060008190555050565b60008082116109e5576040517f08c379a00000000000000000000000000000000000000000000000000000000081526004016109dc9061161d565b60405180910390fd5b81600360009054906101000a900473ffffffffffffffffffffffffffffffffffffffff1673ffffffffffffffffffffffffffffffffffffffff166370a08231336040518263ffffffff1660e01b8152600401610a4191906114cc565b60206040518083038186803b158015610a5957600080fd5b505afa158015610a6d573d6000803e3d6000fd5b505050506040513d601f19601f82011682018060405250810190610a9191906111a9565b1015610ad2576040517f08c379a0000000000000000000000000000000000000000000000000000000008152600401610ac99061159d565b60405180910390fd5b6000610ae0836000546110ab565b905060006064610af2836001546110ab565b610afc91906116a9565b82610b079190611734565b905060008111610b4c576040517f08c379a0000000000000000000000000000000000000000000000000000000008152600401610b439061163d565b60405180910390fd5b80600460009054906101000a900473ffffffffffffffffffffffffffffffffffffffff1673ffffffffffffffffffffffffffffffffffffffff166370a08231306040518263ffffffff1660e01b8152600401610ba891906114cc565b60206040518083038186803b158015610bc057600080fd5b505afa158015610bd4573d6000803e3d6000fd5b505050506040513d601f19601f82011682018060405250810190610bf891906111a9565b11610c38576040517f08c379a0000000000000000000000000000000000000000000000000000000008152600401610c2f906115dd565b60405180910390fd5b600360009054906101000a900473ffffffffffffffffffffffffffffffffffffffff1673ffffffffffffffffffffffffffffffffffffffff166323b872dd3330876040518463ffffffff1660e01b8152600401610c97939291906114e7565b602060405180830381600087803b158015610cb157600080fd5b505af1158015610cc5573d6000803e3d6000fd5b505050506040513d601f19601f82011682018060405250810190610ce99190611157565b50600460009054906101000a900473ffffffffffffffffffffffffffffffffffffffff1673ffffffffffffffffffffffffffffffffffffffff1663095ea7b333836040518363ffffffff1660e01b8152600401610d4792919061151e565b602060405180830381600087803b158015610d6157600080fd5b505af1158015610d75573d6000803e3d6000fd5b505050506040513d601f19601f82011682018060405250810190610d999190611157565b50600460009054906101000a900473ffffffffffffffffffffffffffffffffffffffff1673ffffffffffffffffffffffffffffffffffffffff166323b872dd3033846040518463ffffffff1660e01b8152600401610df9939291906114e7565b602060405180830381600087803b158015610e1357600080fd5b505af1158015610e27573d6000803e3d6000fd5b505050506040513d601f19601f82011682018060405250810190610e4b9190611157565b508092505050919050565b6000600260009054906101000a900473ffffffffffffffffffffffffffffffffffffffff1673ffffffffffffffffffffffffffffffffffffffff163373ffffffffffffffffffffffffffffffffffffffff1614610ee8576040517f08c379a0000000000000000000000000000000000000000000000000000000008152600401610edf906115bd565b60405180910390fd5b600154905090565b6000600260009054906101000a900473ffffffffffffffffffffffffffffffffffffffff1673ffffffffffffffffffffffffffffffffffffffff163373ffffffffffffffffffffffffffffffffffffffff1614610f82576040517f08c379a0000000000000000000000000000000000000000000000000000000008152600401610f79906115bd565b60405180910390fd5b600054905090565b600260009054906101000a900473ffffffffffffffffffffffffffffffffffffffff1673ffffffffffffffffffffffffffffffffffffffff163373ffffffffffffffffffffffffffffffffffffffff161461101a576040517f08c379a0000000000000000000000000000000000000000000000000000000008152600401611011906115bd565b60405180910390fd5b600460009054906101000a900473ffffffffffffffffffffffffffffffffffffffff1673ffffffffffffffffffffffffffffffffffffffff16633610724e34836040518363ffffffff1660e01b8152600401611076919061167d565b6000604051808303818588803b15801561108f57600080fd5b505af11580156110a3573d6000803e3d6000fd5b505050505050565b6000808214806110d35750828283856110c491906116da565b9250826110d191906116a9565b145b611112576040517f08c379a0000000000000000000000000000000000000000000000000000000008152600401611109906115fd565b60405180910390fd5b92915050565b60008151905061112781611856565b92915050565b60008135905061113c8161186d565b92915050565b6000815190506111518161186d565b92915050565b60006020828403121561116957600080fd5b600061117784828501611118565b91505092915050565b60006020828403121561119257600080fd5b60006111a08482850161112d565b91505092915050565b6000602082840312156111bb57600080fd5b60006111c984828501611142565b91505092915050565b6111db81611768565b82525050565b6111ea816117b0565b82525050565b6111f9816117d4565b82525050565b600061120c603183611698565b91507f63757272656e746c79207468652065786368616e676520646f65736e7420686160008301527f766520656e6f75676820546f6b656e73410000000000000000000000000000006020830152604082019050919050565b6000611272601d83611698565b91507f796f7520646f206e6f74206861766520656e6f75676820546f6b656e730000006000830152602082019050919050565b60006112b2601383611698565b91507f5065726d697373696f6e2064656e6965642121000000000000000000000000006000830152602082019050919050565b60006112f2603183611698565b91507f63757272656e746c79207468652065786368616e676520646f65736e2774206860008301527f61766520656e6f75676820546f6b656e420000000000000000000000000000006020830152604082019050919050565b6000611358601483611698565b91507f64732d6d6174682d6d756c2d6f766572666c6f770000000000000000000000006000830152602082019050919050565b6000611398602183611698565b91507f616d6f756e7441206d7573742062652067726561746572207468656e207a657260008301527f6f000000000000000000000000000000000000000000000000000000000000006020830152604082019050919050565b60006113fe602983611698565b91507f65786368616e676520616d6f756e74206d75737420626520677265617465722060008301527f7468656e207a65726f00000000000000000000000000000000000000000000006020830152604082019050919050565b6000611464602283611698565b91507f616d6f756e7442206d7573742062652067726561746572207468656e2072617460008301527f696f0000000000000000000000000000000000000000000000000000000000006020830152604082019050919050565b6114c6816117a6565b82525050565b60006020820190506114e160008301846111d2565b92915050565b60006060820190506114fc60008301866111d2565b61150960208301856111d2565b61151660408301846114bd565b949350505050565b600060408201905061153360008301856111d2565b61154060208301846114bd565b9392505050565b600060208201905061155c60008301846111e1565b92915050565b600060208201905061157760008301846111f0565b92915050565b60006020820190508181036000830152611596816111ff565b9050919050565b600060208201905081810360008301526115b681611265565b9050919050565b600060208201905081810360008301526115d6816112a5565b9050919050565b600060208201905081810360008301526115f6816112e5565b9050919050565b600060208201905081810360008301526116168161134b565b9050919050565b600060208201905081810360008301526116368161138b565b9050919050565b60006020820190508181036000830152611656816113f1565b9050919050565b6000602082019050818103600083015261167681611457565b9050919050565b600060208201905061169260008301846114bd565b92915050565b600082825260208201905092915050565b60006116b4826117a6565b91506116bf836117a6565b9250826116cf576116ce611827565b5b828204905092915050565b60006116e5826117a6565b91506116f0836117a6565b9250817fffffffffffffffffffffffffffffffffffffffffffffffffffffffffffffffff0483118215151615611729576117286117f8565b5b828202905092915050565b600061173f826117a6565b915061174a836117a6565b92508282101561175d5761175c6117f8565b5b828203905092915050565b600061177382611786565b9050919050565b60008115159050919050565b600073ffffffffffffffffffffffffffffffffffffffff82169050919050565b6000819050919050565b60006117bb826117c2565b9050919050565b60006117cd82611786565b9050919050565b60006117df826117e6565b9050919050565b60006117f182611786565b9050919050565b7f4e487b7100000000000000000000000000000000000000000000000000000000600052601160045260246000fd5b7f4e487b7100000000000000000000000000000000000000000000000000000000600052601260045260246000fd5b61185f8161177a565b811461186a57600080fd5b50565b611876816117a6565b811461188157600080fd5b5056fea26469706673582212207c614953deed8ffb71ed3634305bd837924ad3b0b0133c06b767d068f4c79f8d64736f6c63430008000033",
  "immutableReferences": {},
  "source": "// SPDX-License-Identifier: MIT\r\npragma solidity ^0.8.0;\r\n\r\nimport \"@openzeppelin/contracts/token/ERC20/ERC20.sol\";\r\nimport \"./TokenA.sol\";\r\nimport \"./TokenB.sol\";\r\n\r\n// this contract for swapping tokenA tokenB\r\ncontract TokenSwap {\r\n\r\n    //ratioAB is the percentage of how much TokenA is worth of TokenB\r\n    uint256 ratioAB;\r\n    uint256 fees;\r\n    address payable admin;\r\n\r\n    TokenA public tokenA;\r\n    TokenB public tokenB;\r\n\r\n    constructor(address _tokenA, address _tokenB) {\r\n\r\n        admin = payable(msg.sender);\r\n        tokenA = TokenA(_tokenA);\r\n        tokenB = TokenB(_tokenB);\r\n\r\n        // approve token transfer\r\n        tokenA.approve(address(this), tokenA.totalSupply());\r\n        tokenB.approve(address(this), tokenA.totalSupply());\r\n    }\r\n\r\n    modifier onlyAdmin() {\r\n        require(payable(msg.sender) == admin, \"Permission denied!!\");\r\n        _;\r\n    }\r\n\r\n    function setRatio(uint256 _ratio) public onlyAdmin {\r\n        ratioAB = _ratio;\r\n    }\r\n\r\n    function getRatio() public view onlyAdmin returns (uint256) {\r\n        return ratioAB;\r\n    }\r\n\r\n    function setFees(uint256 _Fees) public onlyAdmin {\r\n        fees = _Fees;\r\n    }\r\n\r\n    function getFees() public view onlyAdmin returns (uint256) {\r\n        return fees;\r\n    }\r\n\r\n    // transfer TokenA to TokenB\r\n    function swapTKAtoTKB(uint256 amountA) public returns (uint256) {\r\n        // check if amount given is not 0\r\n        // check contract has enough amout of Tokens to exchange\r\n        require(amountA > 0, \"amountA must be greater then zero\");\r\n        require(\r\n            tokenA.balanceOf(msg.sender) >= amountA,\r\n            \"you do not have enough Tokens\"\r\n        );\r\n\r\n        uint256 exchangeA = uint256(mul(amountA, ratioAB));\r\n        uint256 exchangeAmount = exchangeA -\r\n            uint256((mul(exchangeA, fees)) / 100);\r\n        \r\n        // check if amount exchange is not 0\r\n        // check contract has enough amout of Tokens to exchange\r\n        require(\r\n            exchangeAmount > 0,\r\n            \"exchange amount must be greater then zero\"\r\n        );\r\n        require(\r\n            tokenB.balanceOf(address(this)) > exchangeAmount,\r\n            \"currently the exchange doesn't have enough TokenB\"\r\n        );\r\n\r\n        tokenA.transferFrom(msg.sender, address(this), amountA);\r\n        tokenB.approve(address(msg.sender), exchangeAmount);\r\n        tokenB.transferFrom(\r\n            address(this),\r\n            address(msg.sender),\r\n            exchangeAmount\r\n        );\r\n        return exchangeAmount;\r\n    }\r\n\r\n    // transfer TokenB to TokenA\r\n    function swapTKBtoTKA(uint256 amountB) public returns (uint256) {\r\n        // check if amount given is not 0\r\n        // check contract has enough amout of Tokens to exchange\r\n        require(amountB >= ratioAB, \"amountB must be greater then ratio\");\r\n        require(\r\n            tokenB.balanceOf(msg.sender) >= amountB,\r\n            \"you do not have enough Tokens\"\r\n        );\r\n\r\n        uint256 exchangeA = amountB / ratioAB;\r\n        uint256 exchangeAmount = exchangeA - ((exchangeA * fees) / 100);\r\n\r\n        // check if amount exchange is not 0\r\n        // check contract has enough amout of Tokens to exchange\r\n        require(\r\n            exchangeAmount > 0,\r\n            \"exchange amount must be greater then zero\"\r\n        );\r\n        require(\r\n            tokenA.balanceOf(address(this)) > exchangeAmount,\r\n            \"currently the exchange doesnt have enough TokensA\"\r\n        );\r\n        tokenB.transferFrom(msg.sender, address(this), amountB);\r\n        tokenA.approve(address(msg.sender), exchangeAmount);\r\n        tokenA.transferFrom(\r\n            address(this),\r\n            address(msg.sender),\r\n            exchangeAmount\r\n        );\r\n        return exchangeAmount;\r\n    }\r\n\r\n    function buyTokensA(uint256 amount) public payable onlyAdmin {\r\n        tokenA.buyTokens{value: msg.value}(amount);\r\n    }\r\n\r\n    function buyTokensB(uint256 amount) public payable onlyAdmin {\r\n        tokenB.buyTokens{value: msg.value}(amount);\r\n    }\r\n\r\n    function mul(uint256 x, uint256 y) internal pure returns (uint256 z) {\r\n        require(y == 0 || (z = x * y) / y == x, \"ds-math-mul-overflow\");\r\n    }\r\n}",
  "sourcePath": "C:\\Users\\yucheng\\Desktop\\jkos_project\\contracts\\TokenSwap.sol",
  "compiler": {
    "name": "solc",
    "version": "0.8.0+commit.c7dfd78e.Emscripten.clang"
  },
  "schemaVersion": "3.4.7",
  "updatedAt": "2022-05-16T01:55:07.208Z",
  "networkType": "ethereum",
  "devdoc": {
    "kind": "dev",
    "methods": {},
    "version": 1
  },
  "userdoc": {
    "kind": "user",
    "methods": {},
    "version": 1
  }
}